:1000000012C019C018C017C016C015C014C013C044
:1000100012C07BC010C00FC00EC00DC00CC00BC002
:100020000AC009C008C011241FBECFE5D4E0DEBF5E
:10003000CDBF02D071C06FC058D060D059D006D0AB
:10004000303009F42CD033D0FECF08953FE718D0DC
:1000500009D00F3F29F400273150303009F4F7CF91
:100060001CD0089503E1000F03B904E806BF06B7EA
:1000700007FFFDCF01B1087F083109F00FEF0895A8
:1000800004EA06BF06B707FFFDCF01B1087F0830BD
:1000900019F0003109F003D0089504E90895C09AD9
:1000A00011E020D0C09815E01DD0F9CF0895303070
:1000B00089F0032F02950F70202F0DD02150E9F702
:1000C0001FE010D0032F0F70202F05D02150E9F72B
:1000D0001CE308D00895C09A11E004D0C09815E040
:1000E00001D008951030F1F70895B89AC098089596
:1000F0000CE000B901B1036001B9089501E00460AA
:1001000003BF01E009BF789408950F930FB7115012
:0C0110000FBF0F9118951895F894FFCFC1
:00000001FF
