:1000000012C019C018C017C016C015C014C013C044
:1000100012C087C010C00FC00EC00DC00CC00BC0F6
:100020000AC009C008C011241FBECFE5D4E0DEBF5E
:10003000CDBF02D07FC07DC064D06CD065D005D06C
:10004000303009F42CD033D008953FE718D009D0D0
:100050000F3F29F400273150303009F0F7CF1CD082
:100060000895032F000F03B904E806BF06B707FF82
:10007000FDCF01B1087F083109F00FEF089504EAC0
:1000800006BF06B707FFFDCF01B1087F083019F0A2
:10009000003109F004D0089504E906BF0895979A45
:1000A00011E02CD0979811E029D0F9CF0895032FB3
:1000B00002950F70202F0AD01AE020D0032F0F7066
:1000C000202F04D01EE11AD0F2CF0895203011F471
:1000D0000ED005C0203019F003D02150FBCF089579
:1000E000979A13E00BD0979813E008D00895979A49
:1000F0001CE004D0979813E001D008951030F1F778
:1001000008958F9A979808950CE000B901B10060A6
:1001100001B9089501E0046003BF01E009BF7894CC
:1001200008950F930FB70F9311500F910FBF0F91B9
:0801300018951895F894FFCF13
:00000001FF
