:1000000012C019C018C017C016C015C014C013C044
:1000100012C07CC010C00FC00EC00DC00CC00BC001
:100020000AC009C008C011241FBECFE5D4E0DEBF5E
:10003000CDBF02D072C070C059D061D05AD005D0A7
:10004000303009F42BD032D008953FE718D009D0D2
:100050000F3F29F000273150303009F0F7CF1CD086
:10006000089503E1000F03B904E806BF06B707FFD0
:10007000FDCF01B1087F083109F00FEF089504EAC0
:1000800006BF06B707FFFDCF01B1087F083019F0A2
:10009000003109F003D0089504E90895C09A11E0F1
:1000A00022D0C09815E01FD0F9CF08953695303092
:1000B00091F0032F02950F70202F0ED02150E9F7F9
:1000C0001EE111D0032F0F70202F06D02150E9F729
:1000D00012E309D0ECCF0895979A13E004D09798D3
:1000E00016E001D008951030F1F708958F9A97988F
:1000F00008950CE000B901B1006001B9089501E074
:10010000046003BF01E009BF789408950F930FB70F
:0E01100011500FBF0F9118951895F894FFCF5E
:00000001FF
